:100000000C9468000C947A000C947A000C947A009A
:100010000C947A000C947A000C947A000C947A0078
:100020000C947A000C947A000C947A000C947A0068
:100030000C947A000C947A000C947A000C947A0058
:100040000C9462010C947A000C947A000C947A005F
:100050000C947A000C947A000C947A000C947A0038
:100060000C947A000C947A008F029202C602F60277
:1000700027035E038D0300000000240027002A00F0
:1000800000000000250028002B00000000002300D5
:1000900026002900040404040404040402020202E9
:1000A000020203030303030301020408102040803B
:1000B00001020408102001020408102000000008BA
:1000C000000201000003040700000000000000001F
:1000D00011241FBECFEFD8E0DEBFCDBF21E0A0E0EE
:1000E000B1E001C01D92A131B207E1F70E94AC015D
:1000F0000C94D2030C940000833081F028F48130FA
:1001000099F08230A1F008958730A9F08830B9F0D5
:100110008430D1F4809180008F7D03C08091800075
:100120008F7780938000089584B58F7702C084B55F
:100130008F7D84BD08958091B0008F7703C080913A
:10014000B0008F7D8093B0000895CF93DF93282F68
:1001500030E0F901E454FF4F8491F901E855FF4F75
:10016000D491F901EC56FF4FC491CC2391F0811149
:100170000E947C00EC2FF0E0EE0FFF1FE657FF4FD0
:10018000A591B491EC91ED2381E090E021F480E021
:1001900002C080E090E0DF91CF9108951F93CF934C
:1001A000DF93282F30E0F901E454FF4F8491F901E7
:1001B000E855FF4FD491F901EC56FF4FC491CC2381
:1001C000C9F0162F81110E947C00EC2FF0E0EE0F99
:1001D000FF1FE058FF4FA591B4918FB7F89411110C
:1001E00005C09C91ED2FE095E92302C0EC91ED2B29
:1001F000EC938FBFDF91CF911F910895CF93DF9341
:1002000090E0FC01E855FF4F2491FC01EC56FF4FB4
:100210008491882361F190E0880F991FFC01EA58CE
:10022000FF4FC591D491FC01E058FF4FA591B491C7
:10023000611109C09FB7F894888120958223888333
:10024000EC912E230BC0623061F49FB7F894388193
:10025000822F809583238883EC912E2B2C939FBF34
:1002600006C08FB7F894E8812E2B28838FBFDF91CB
:10027000CF91089560E087E00E94CE0060E088E0C2
:100280000E94CE0060E080E10E94CE0060E089E044
:100290000E94CE0060E08AE00E94CE0060E08BE029
:1002A0000E94CE0060E08CE00E94CE0060E08DE015
:1002B0000E94CE0060E08EE00E94CE0060E08FE001
:1002C0000C94CE001F920F920FB60F9211242F9311
:1002D0003F938F939F93AF93BF9380910D01909124
:1002E0000E01A0910F01B091100130910C0123E09B
:1002F000230F2D3720F40196A11DB11D05C026E85E
:10030000230F0296A11DB11D20930C0180930D01B6
:1003100090930E01A0930F01B093100180910801FA
:1003200090910901A0910A01B0910B010196A11DC4
:10033000B11D8093080190930901A0930A01B09325
:100340000B01BF91AF919F918F913F912F910F9092
:100350000FBE0F901F901895CF93DF931F92CDB7CC
:10036000DEB7789484B5826084BD84B5816084BD35
:1003700085B5826085BD85B5816085BD80916E0043
:10038000816080936E001092810080918100826074
:1003900080938100809181008160809381008091B1
:1003A00080008160809380008091B10084608093A0
:1003B000B1008091B00081608093B00080917A009C
:1003C000846080937A0080917A00826080937A00C2
:1003D00080917A00816080937A0080917A008068B1
:1003E00080937A001092C10060E081E00E94FE00DC
:1003F00060E082E00E94FE0060E083E00E94FE0078
:1004000060E084E00E94FE0060E085E00E94FE0063
:1004100060E086E00E94FE0061E087E00E94FE004E
:1004200061E088E00E94FE0061E089E00E94FE0039
:1004300061E08AE00E94FE0061E08BE00E94FE0025
:1004400061E08CE00E94FE0061E08DE00E94FE0011
:1004500061E08EE00E94FE0061E08FE00E94FE00FD
:1004600061E080E10E94FE0003E010E09AE3E92EE3
:1004700091E0F92E26E0C22ED12C35E0A32EB12C2E
:1004800044E0842E912C80E0682E80E0782E81E07C
:100490000E94A50022242394892B09F4212C209268
:1004A000050182E00E94A50044244394892B09F4AD
:1004B000412C4092040183E00E94A50055245394EE
:1004C000892B09F4512C5092030184E00E94A5006D
:1004D00033243394892B09F4312C3092010185E0C7
:1004E0000E94A50021E0892B09F420E0209300015F
:1004F00086E029830E94A50031E02981892B09F437
:1005000030E030930201E0910601F0910701E730FD
:10051000F10508F02FC1EC5CFF4F0C94CC030E9456
:100520003A0161C061E087E00E94CE0061E088E0AE
:100530000E94CE0060E080E10E94CE0060E089E091
:100540000E94CE0060E08AE00E94CE0060E08BE076
:100550000E94CE0061E08CE00E94CE0060E08DE061
:100560000E94CE0060E08EE00E94CE0060E08FE04E
:100570000E94CE00222029F010930701009306016B
:10058000FDC0411002C1511000C1F8C061E087E018
:100590000E94CE0061E088E00E94CE0060E080E131
:1005A0000E94CE0060E089E00E94CE0060E08AE018
:1005B0000E94CE0060E08BE00E94CE0061E08CE003
:1005C0000E94CE0061E08DE00E94CE0060E08EE0EF
:1005D0000E94CE0060E08FE00E94CE0081E05826AD
:1005E000451408F0CBC081E090E0D1C060E087E026
:1005F00039830E94CE0060E088E00E94CE0061E076
:1006000080E10E94CE0060E089E00E94CE0060E0C0
:100610008AE00E94CE0060E08BE00E94CE0060E0A5
:100620008CE00E94CE0060E08DE00E94CE0060E091
:100630008EE00E94CE0060E08FE00E94CE00398103
:10064000332389F2909207018092060197C060E0FF
:1006500087E00E94CE0061E088E00E94CE0060E06A
:1006600080E10E94CE0060E089E00E94CE0060E060
:100670008AE00E94CE0060E08BE00E94CE0060E045
:100680008CE00E94CE0060E08DE00E94CE0060E031
:100690008EE00E94CE0060E08FE00E94CE004420F9
:1006A00029F0B0920701A092060168C0552009F414
:1006B00065C0D0920701C092060160C060E087E08B
:1006C0000E94CE0060E088E00E94CE0060E080E101
:1006D0000E94CE0061E089E00E94CE0061E08AE0E5
:1006E0000E94CE0060E08BE00E94CE0060E08CE0D3
:1006F0000E94CE0060E08DE00E94CE0061E08EE0BE
:100700000E94CE0060E08FE00E94CE003320B1F165
:10071000F0920701E092060131C060E087E0298392
:100720000E94CE0060E088E00E94CE0060E080E1A0
:100730000E94CE0061E089E00E94CE0060E08AE085
:100740000E94CE0061E08BE00E94CE0060E08CE071
:100750000E94CE0060E08DE00E94CE0060E08EE05E
:100760000E94CE0061E08FE00E94CE00298121111D
:10077000CFCF04C0109207011092060161147104DA
:1007800009F485CE0E9400007ECE82E090E0909336
:10079000070180930601F2CFEE0FFF1F0590F49141
:0807A000E02D0994F894FFCF4D
:00000001FF
